:020000040000FA
:100000000C9462000C948A000C948A000C948A0070
:100010000C948A000C948A000C948A000C948A0038
:100020000C948A000C948A000C948A000C942A0682
:100030000C948A000C948A000C948A000C948A0018
:100040000C94E0050C948A000C94AE050C94880581
:100050000C948A000C948A000C948A000C948A00F8
:100060000C948A000C948A000000000024002700F1
:100070002A0000000000250028002B0000000000DE
:1000800023002600290004040404040404040202DA
:100090000202020203030303030301020408102007
:1000A0004080010204081020010204081020000012
:1000B0000008000201000003040700000000000027
:1000C0000000E60611241FBECFEFD8E0DEBFCDBF93
:1000D00012E0A0E0B1E0E8E0F9E102C005900D9285
:1000E000AA32B107D9F723E0AAE2B2E001C01D921B
:1000F000A438B207E1F710E0C2E6D0E004C02197CF
:10010000FE010E947C0CC136D107C9F70E94BB07D3
:100110000C94820C0C940000CF92DF92EF92FF922D
:10012000DC01A03282E0B807D4F5A53BB10514F09C
:10013000A4EBB0E04091820328E830E0241B3109B1
:1001400047FD3395220F331F220F331F6901330FF1
:10015000EE08FF084091830328E532E0241B3109B3
:1001600047FD3395220F331F220F331F032E000C40
:10017000440B550B2C193D094E095F09B7FF02C00E
:10018000B0E0A0E00E94370C24EB30E040E050E00B
:100190000E940D0CC20ED31EE41EF51ED601E09186
:1001A0008103EC3080F52091820388E890E0821B87
:1001B000910927FD9395880F991F880F991FA817FC
:1001C000B90784F02091830388E592E0821B9109AE
:1001D00027FD9395880F991F880F991FA817B907B6
:1001E0000CF4CD010297880F991F4FB7F8942E2F6A
:1001F00030E0F901EE0FFF1FE20FF31FEB52FD4F4E
:10020000928381834FBFFF90EF90DF90CF9008954E
:1002100096E0899FD0011124A650BD4F90967C9303
:100220006E935F9791E091969C939197E09167030D
:10023000F091680390916603992339F0309751F05B
:10024000811108C0809116030994309719F05C96CB
:100250008C91FACF0895CF92DF92EF92FF920F9395
:100260001F9396E0899FF0011124E650FD4F11A2E3
:10027000278D30A12130310551F178F02230310540
:1002800009F451C02330310509F452C01F910F9178
:10029000FF90EF90DF90CF9008956623B9F361E06F
:1002A00070E00E9408012FB7F89480913402909179
:1002B0003502A0913602B09137022FBF80935203CE
:1002C00090935303A0935403B0935503DFCF9FB78C
:1002D000F894C0903402D0903502E0903602F0904D
:1002E00037029FBF00915203109153032091540392
:1002F00030915503C01AD10AE20AF30A009164034F
:100300001091650330E020E00C151D052E053F051A
:1003100050F462E070E01F910F91FF90EF90DF903A
:10032000CF900C9408016111B1CF63E070E0F3CF7E
:1003300070E060E0F0CFFC01538D448D252F30E05C
:10034000842F90E0821B930B541710F0CF960895E2
:1003500001970895FC01918D828D981761F0A28D0F
:10036000AE0FBF2FB11D5D968C91928D9F5F9F73D5
:10037000928F90E008958FEF9FEF0895FC01918D8B
:10038000828D981731F0828DE80FF11D858D90E0F8
:1003900008958FEF9FEF0895FC01918D228D892F95
:1003A00090E0805C9F4F821B91098F73992708957D
:1003B000FC01A48DA80FB92FB11DA35ABF4F2C91DA
:1003C000848D90E001968F739927848FA689B789D1
:1003D0002C93A089B1898C91837080648C93938DC8
:1003E000848D981306C00288F389E02D80818F7D6B
:1003F00080830895EF92FF920F931F93CF93DF9323
:10040000EC0181E0888F9B8D8C8D98131AC0E88950
:10041000F989808185FF15C09FB7F894EE89FF891F
:100420006083E889F98980818370806480839FBFBD
:1004300081E090E0DF91CF911F910F91FF90EF90BD
:100440000895F62E0B8D10E00F5F1F4F0F731127CD
:10045000E02E8C8D8E110CC00FB607FCFACFE88908
:10046000F989808185FFF5CFCE010E94D801F1CFB7
:10047000EB8DEC0FFD2FF11DE35AFF4FF0829FB77C
:10048000F8940B8FEA89FB8980818062CFCFCF936C
:10049000DF93EC01888D8823B9F0AA89BB89E889AC
:1004A000F9898C9185FD03C0808186FD0DC00FB652
:1004B00007FCF7CF8C9185FFF2CF808185FFEDCFD0
:1004C000CE010E94D801E9CFDF91CF91089588E352
:1004D00092E00E94CC0121E0892B09F420E0822FD8
:1004E000089580E090E0892B29F00E946702811135
:1004F0000C9400000895AF92BF92CF92DF92EF92DA
:10050000FF920F931F93CF93DF936C017B018B01BD
:10051000040F151FEB015E01AE18BF08C017D1070D
:1005200059F06991D601ED91FC910190F081E02D97
:10053000C6010995892B79F7C501DF91CF911F91EC
:100540000F91FF90EF90DF90CF90BF90AF90089504
:10055000833081F028F4813099F08230A9F0089539
:100560008730A9F08830C9F08430B1F480918000E0
:100570008F7D03C0809180008F77809380000895E5
:1005800084B58F7784BD089584B58F7DFBCF80912E
:10059000B0008F778093B00008958091B0008F7D78
:1005A000F9CFCF93DF93282F30E0F901E255FF4FC9
:1005B0008491F901E656FF4FD491F901EA57FF4FB4
:1005C000C491CC23A1F081110E94A802EC2FF0E08D
:1005D000EE0FFF1FE458FF4FA591B491EC91ED236E
:1005E00081E090E009F480E0DF91CF91089580E010
:1005F00090E0FACF862F0C94D1021F93CF93DF9314
:10060000282F30E0F901E255FF4F8491F901E656B9
:10061000FF4FD491F901EA57FF4FC491CC23A9F0C1
:10062000162F81110E94A802EC2FF0E0EE0FFF1FA1
:10063000EE58FF4FA591B4918FB7F894EC9111113A
:1006400008C0D095DE23DC938FBFDF91CF911F913F
:100650000895DE2BF8CF862F642F0C94FD02CF93E4
:10066000DF9390E0FC01E656FF4F24918A579F4F9D
:10067000FC0184918823C9F090E0880F991FFC0148
:10068000E859FF4FA591B491FC01EE58FF4FC59179
:10069000D49161110DC09FB7F8948C91209582235D
:1006A0008C938881282328839FBFDF91CF91089561
:1006B000623051F49FB7F8943C91822F8095832348
:1006C0008C93E8812E2BEFCF8FB7F894EC912E2BE3
:1006D0002C938FBFEACF862F642F0C942F033FB744
:1006E000F89480912C0290912D02A0912E02B0914D
:1006F0002F0226B5A89B05C02F3F19F00196A11D1A
:10070000B11D3FBFBA2FA92F982F8827BC01CD015B
:10071000620F711D811D911D42E0660F771F881FBA
:10072000991F4A95D1F708958F929F92AF92BF92E9
:10073000CF92DF92EF92FF924B015C010E946F0318
:100740006B017C010E946F036C197D098E099F0962
:10075000683E734081059105A8F321E0821A910853
:10076000A108B10888EEC80E83E0D81EE11CF11C78
:1007700081149104A104B10429F7FF90EF90DF9058
:10078000CF90BF90AF909F908F900895089590E084
:1007900080E00895FB0101900020E9F73197AF0157
:1007A000461B570BDC01ED91FC910280F381E02D9B
:1007B0000994BC0189E693E00C94CA030F931F933C
:1007C000CF93DF93EC010E94CA038C016BE371E0CD
:1007D000CE010E94CA03800F911FDF91CF911F911C
:1007E0000F910895CF93DF93EC0160E08E810E941A
:1007F000FD0261E08E810E94FD0260E08E810E9418
:10080000FD028BE891E00197F1F7DF91CF91089518
:10081000CF92DF92EF92FF920F931F93CF93DF93CC
:100820006C017C0187E0E80EF11CD0E0C0E0062FEF
:1008300010E0B8010C2E02C0759567950A94E2F796
:100840006170F70181917F010E94FD022196C43001
:10085000D10579F7C601DF91CF911F910F91FF90DC
:10086000EF90DF90CF900C94F203CF92DF92EF9253
:10087000FF920F931F93CF93DF93EC01F62E642F1B
:100880008C810E94FD028D818F3F19F060E00E94F3
:10089000FD020F2D10E08F8584FF25C06E0187E0DB
:1008A000C80ED11CF12CE12CB8010E2C02C075959C
:1008B00067950A94E2F76170F60181916F010E94D9
:1008C000FD02FFEFEF1AFF0A88E0E816F10461F776
:1008D000CE01DF91CF911F910F91FF90EF90DF90AC
:1008E000CF900C94F203B80184E0759567958A95D2
:1008F000E1F7CE010E9408046F2DCE01DF91CF9168
:100900001F910F91FF90EF90DF90CF900C9408040F
:1009100040E0682F89E693E00C94350481E00E9462
:1009200088048BE39FE10197F1F70895CF93DF935C
:10093000823029F4909178039860909378038093A3
:100940007C0310927D0380E480937E0380E180939A
:100950007F0380E58093800361E080916D030E94B6
:100960002F0380916E038F3F19F061E00E942F03E7
:1009700061E080916F030E942F03C9E6D3E09E01DE
:10098000295633408091780384FD0BC084E090E0C9
:1009900021962817390744F461E08E810E942F03C5
:1009A000EECF88E090E0F4CF8BE39DE00197F1F784
:1009B00060E080916D030E94FD0260E080916F0312
:1009C0000E94FD0280916E038F3F19F060E00E944B
:1009D000FD028091780384FD34C063E089E693E0F2
:1009E0000E940804CBE4D6E4CE010197F1F763E05E
:1009F00089E693E00E9408042197F1F763E089E615
:100A000093E00E94080483E592E00197F1F762E029
:100A100089E693E00E9408048091780380620E9436
:100A2000880484E0809379038CE00E9488040E940B
:100A30008E0482E080937A0386E0DF91CF910C945C
:100A4000880480620E9488048BE496E40197F1F7A1
:100A50008091780380620E94880483E592E0019788
:100A6000F1F78091780380620E948804D5CF6430CA
:100A700008F063E090917C03691710F06FEF690F45
:100A8000E62FF0E0E759FC4F9489890F80680C94B9
:100A9000880487E00E94D102892BD1F46EE371E0D3
:100AA00088E392E00E94DE030E948E048EE391E0D0
:100AB0000E94D90360E08AE00E94FD0260E08CE0C1
:100AC0000E94FD0268EC70E080E090E00C949403DA
:100AD00069E471E088E392E00E94DE030E948E04E4
:100AE00089E591E00E94D90361E080E00E9437052A
:100AF00082E691E00E94D90361E08AE00E94FD0253
:100B000061E0DDCF41E00E94350481E090E008958E
:100B10001F920F920FB60F9211242F933F934F9372
:100B20005F936F937F938F939F93AF93BF93EF9355
:100B3000FF9388E392E00E94D801FF91EF91BF916B
:100B4000AF919F918F917F916F915F914F913F9165
:100B50002F910F900FBE0F901F9018951F920F921C
:100B60000FB60F9211242F938F939F93EF93FF93C0
:100B7000E0914802F09149028081E0914E02F091AB
:100B80004F0282FD1BC09081809151028F5F8F7355
:100B900020915202821741F0E0915102F0E0E85CAE
:100BA000FD4F958F80935102FF91EF919F918F910F
:100BB0002F910F900FBE0F901F9018958081F4CF4A
:100BC0001F920F920FB60F9211242F933F938F9382
:100BD0009F93AF93BF938091340290913502A0917F
:100BE0003602B091370230912B0223E0230F2D37CC
:100BF00058F50196A11DB11D20932B02809334025C
:100C000090933502A0933602B093370280912C0264
:100C100090912D02A0912E02B0912F020196A11D5C
:100C2000B11D80932C0290932D02A0932E02B093BD
:100C30002F02BF91AF919F918F913F912F910F9074
:100C40000FBE0F901F90189526E8230F0296A11D46
:100C5000B11DD2CF1F920F920FB60F9211242F9376
:100C60003F934F935F936F937F938F939F93AF9334
:100C7000BF93CF93DF93EF93FF9380912A02C091AC
:100C8000F902D0E087FF24C0109285001092840002
:100C900080912A028F5F80932A0280912A02082E77
:100CA000000C990B8C179D0724F480912A028C303C
:100CB000C4F18091840090918500049680349C4911
:100CC00008F47AC08091840090918500049676C0E3
:100CD00080912A02082E000C990B8C179D07C4F6F0
:100CE000E0912A028E2FEE0F990BFC01EE0FFF1FF1
:100CF000E80FF91FEB52FD4F808186FFC9CFE091CD
:100D00002A028E2FEE0F990BFC01EE0FFF1FE80F4A
:100D1000F91FEB52FD4F808160E08F730E94FD024E
:100D2000B7CF2091840030918500E0912A028E2F68
:100D3000EE0F990BFC01EE0FFF1FE80FF91FEB52AE
:100D4000FD4F81819281820F931F90938900809340
:100D50008800E0912A028E2FEE0F990BFC01EE0F16
:100D6000FF1FE80FF91FEB52FD4F808186FF11C076
:100D7000E0912A028E2FEE0F990BFC01EE0FFF1F60
:100D8000E80FF91FEB52FD4F808161E08F730E94E5
:100D9000FD02FF91EF91DF91CF91BF91AF919F91B4
:100DA0008F917F916F915F914F913F912F910F9014
:100DB0000FBE0F901F90189580E49CE990938900D6
:100DC000809388008FEF80932A02E3CF10923B023A
:100DD00010923A0288EE93E0A0E0B0E080933C02EB
:100DE00090933D02A0933E02B0933F0287E191E0D1
:100DF000909339028093380285EC90E090934502FD
:100E00008093440284EC90E09093470280934602E2
:100E100080EC90E0909349028093480281EC90E04E
:100E200090934B0280934A0282EC90E090934D02A3
:100E300080934C0286EC90E090934F0280934E0298
:100E400010925102109252021092530210925402C8
:100E50008091F9028C3008F08AC091E0980F90934D
:100E6000F9028093810390E0FC01EE0FFF1FE80F71
:100E7000F91FEB52FD4F88EB9BE092838183109228
:100E80006C0310926B0383E391E090936A03809369
:100E9000690382E180936D038FEF80936E0383E19A
:100EA00080936F0381E18093700380E180937103ED
:100EB0008FE0809372038EE080937303109274032B
:100EC00010927503109276031092770310927803B4
:100ED00081E00E9496041092FC021092000310928E
:100EE000FF021092010389E291E09093FB0280934C
:100EF000FA02E6E1F3E0108214821382158236963C
:100F000083E0E235F807B9F783E091E090935D0361
:100F100080935C0380E091E090935F0380935E0395
:100F200084E08093600383E08093610387E091E035
:100F300090935B0380935A038AE090E0909363035D
:100F40008093620384EF91E0909365038093640340
:100F50001092680310926703109256031092570381
:100F600010925803109259031092660308958FEF60
:100F70008093810384CF789484B5826084BD84B5E6
:100F8000816084BD85B5826085BD85B5816085BD84
:100F900080916E00816080936E001092810080913C
:100FA00081008260809381008091810081608093C4
:100FB0008100809180008160809380008091B100E9
:100FC00084608093B1008091B00081608093B00014
:100FD00080917A00846080937A0080917A008260A8
:100FE00080937A0080917A00816080937A0080916A
:100FF0007A00806880937A001092C10060E087E0F8
:101000000E942F0361E08AE00E942F0361E08CE0E0
:101010000E942F030E944905809181038C3008F0C3
:1010200051C061E089E00E942F0380918103282F45
:1010300030E0F901EE0FFF1FE20FF31FEB52FD4FFF
:101040009081907C99609083109282031092830328
:101050002CE0622F0E94700C829FB001112430E0BE
:1010600020E0AB01420F531FFA01EE0FFF1FE40F08
:10107000F51FEB52FD4F908196FD16C02F5F3F4F3D
:101080002C30310571F781110FC01092800082E081
:10109000809381001092850010928400B19A809113
:1010A0006F00826080936F00E09181038E2F90E04B
:1010B000FC01EE0FFF1FE80FF91FEB52FD4F80817F
:1010C0008064808382E00E949604812C912C5401DC
:1010D000839440E0442E40E0542E54EB652E712C56
:1010E0008091320290913302892B11F40E944905BC
:1010F00051E0509366038FB7F894409134025091B9
:10110000350260913602709137028FBF809156038D
:1011100090915703A0915803B0915903481B590B64
:101120006A0B7B0B8091620390916303B0E0A0E0B7
:1011300084179507A607B70708F017C1C0E080918C
:101140006003C81760F4E0915C03F0915D03EC0F5D
:10115000F11D62E080810E942F03CF5FF0CF312C20
:1011600080916103381608F05FC0032D10E0E09114
:101170005E03F0915F03E00FF11F61E080810E9448
:101180002F03E0915E03F0915F03E00FF11F60E039
:1011900080810E94FD02D501C401032C04C0880F88
:1011A000991FAA1FBB1F0A94D2F76C017C01E0941F
:1011B000F094212C809160032816F8F4C22DD0E021
:1011C000E0915C03F0915D03EC0FFD1F80810E94B4
:1011D000D1022496CC0FDD1FC650DD4F892B41F480
:1011E000888199818C299D29998388832394E2CFD2
:1011F000888199818E219F21F7CFE0915E03F09144
:101200005F03E00FF11F61E080810E94FD02809189
:101210005E0390915F03080F191F60E0F801808161
:101220000E942F0333949CCFCAEFD2E0FE01878D3A
:1012300090A1892B31F4148E8FEF9FEF968F858FBD
:1012400011A2369693E0E633F90789F7F12C8091E5
:101250006003F81608F051C0E12C0F2D10E0000FCC
:10126000111F0E5F1C4F20916103E21608F043C06E
:10127000F801608171810E2C02C0769567950A9401
:10128000E2F7F29E900111242E0D311DEAEFF2E0FB
:1012900080E0458D568D2417350709F4BCC28F5F59
:1012A00036968A30B1F760FF24C0EAEFF2E090E0B2
:1012B00080E0448D411118C0E0915A03F0915B0326
:1012C000E20FF31F408156E0589FF001599FF00D47
:1012D0001124E650FD4F448F368F258F10A2178EB4
:1012E00061E00E942B0105C0019636968A30910577
:1012F00001F7E394B8CFF394AACF80E099A19111BC
:10130000892F269693E0C633D907C1F79FB7F89483
:10131000409134025091350260913602709137024B
:101320009FBF4093560350935703609358037093A5
:1013300059038823D1F080911B038823B1F0809159
:10134000190390911A03019781F41091160311115A
:101350000FC04114510409F4C3CE0E9467028823D0
:1013600009F4BECE0E940000BBCE10926603F1CFFE
:101370000E948E0460E080E00E94370581E791E0E2
:101380000E94D90361E087E00E9437058BE791E076
:101390000E94D90361E087E00E943705D0E0C0E0F9
:1013A00080913202909133028C179D0734F08DE7C3
:1013B00091E00E94D9032196F3CFFC01E158FE4F42
:1013C00020812113DDC10196909333028093320274
:1013D000049709F0BECF64E873E080E090E00E94DB
:1013E000940360E080E00E9437056BE771E089E6D6
:1013F00093E00E94DE0360E081E00E94370584E80C
:1014000091E00E94D90361E084E00E94370563E91E
:1014100071E089E693E00E94DE0361E08FE00E94C4
:1014200037056BE771E089E693E00E94DE0361E037
:1014300080E10E9437056BE771E089E693E00E9446
:10144000DE0361E08EE00E9437056BE771E089E61C
:1014500093E00E94DE0361E08DE00E9437056BE7B8
:1014600071E089E693E00E94DE037092310260929F
:101470003002C0913002D0913102D7FD0FC0CE01B1
:101480000E948C0065E070E080E090E00E94940390
:101490002597D0933102C0933002EBCF60ED77E017
:1014A00080E090E00E94940368EE73E080E090E0BA
:1014B0000E94940360EB74E080E090E00E9494034B
:1014C0000E948E046FE082E00E9437056BE771E0B6
:1014D00089E693E00E94DE036EE082E00E94370519
:1014E0006BE771E089E693E00E94DE0360E081E053
:1014F0000E94370568EC70E080E090E00E94940361
:101500006DE971E089E693E00E94DE0361E084E02A
:101510000E94370580EB91E00E94D90368EC70E0EF
:1015200080E090E00E9494030E948E0460E081E0DD
:101530000E94370562EB71E089E693E00E94DE03CA
:1015400068EE73E080E090E00E94940360E081E048
:101550000E94370562EB71E089E693E00E94DE03AA
:1015600061E084E00E94370583EC91E00E94D9039A
:1015700064E670E080E090E00E9494030E948E0494
:1015800060E081E00E94370562EB71E089E693E05C
:101590000E94DE0368EE73E080E090E00E94940316
:1015A00060E081E00E94370562EB71E089E693E03C
:1015B0000E94DE0361E084E00E94370585EC91E043
:1015C0000E94D90364E670E080E090E00E949403FA
:1015D0000E948E0460E081E00E94370562EB71E0BA
:1015E00089E693E00E94DE0368EE73E080E090E01D
:1015F0000E94940360E081E00E94370562EB71E095
:1016000089E693E00E94DE0361E084E00E943705F2
:1016100082E891E00E94D90364E670E080E090E007
:101620000E9494030E948E0460E081E00E943705CE
:1016300062EB71E089E693E00E94DE0368EE73E0FE
:1016400080E090E00E94940361E084E00E9437050E
:1016500087EC91E00E94D90364E670E080E090E0BE
:101660000E9494030E948E0460E081E00E9437058E
:1016700069EC71E089E693E00E94DE0368EE73E0B6
:1016800080E090E00E94940368E270E080E090E0E7
:101690000E9494030E948E0460E082E00E9437055D
:1016A00086ED91E00E94D90364EF71E080E090E064
:1016B0000E94940360E08CE00E94370581EE91E087
:1016C0000E94D90364EF71E080E090E00E949403EF
:1016D00060E08DE00E94370581EE91E00E94D90321
:1016E00064EF71E080E090E00E94940360E08EE09F
:1016F0000E94370581EE91E00E94D90360E971E014
:1017000080E090E00E9494030E948E0460E084E0F8
:101710000E94370583EE91E00E94D90368EB71E0E7
:1017200080E090E00E94940368EE73E080E090E037
:101730000E94940310923102109230028091300284
:1017400090913102853B91050CF060C00E948C00A5
:101750006FE070E080E090E00E949403109233020A
:10176000109232020E948E040E944905809130023C
:101770009091310205969093310280933002DECF32
:1017800064EF71E080E090E00E9494030E948E0478
:1017900060E081E00E9437058BEE91E00E94D90362
:1017A00060E086E00E94370580EF91E00E94D90357
:1017B00061E08FE00E9437056BE771E089E693E016
:1017C0000E94DE0361E084E00E9437056AEF71E069
:1017D00089E693E00E94DE0361E08DE00E94370518
:1017E0006BE771E089E693E00E94DE0366E072E059
:1017F00088E392E00E94DE0368EB7BE080E090E00B
:101800000E9494030E948E040E94490510923302A4
:10181000109232029ECD617064CD052E97FB1EF4AE
:1018200000940E94240C57FD07D00E943F0C07FC37
:1018300003D04EF40C94240C50954095309521958E
:101840003F4F4F4F5F4F08959095809570956195EC
:101850007F4F8F4F9F4F08950E94610CA59F900D61
:10186000B49F900DA49F800D911D11240895B7FF82
:101870000C942C0C0E942C0C821B930B0895A1E25B
:101880001A2EAA1BBB1BFD010DC0AA1FBB1FEE1FFA
:10189000FF1FA217B307E407F50720F0A21BB30B45
:1018A000E40BF50B661F771F881F991F1A9469F7C1
:1018B00060957095809590959B01AC01BD01CF011D
:1018C0000895A29FB001B39FC001A39F700D811D19
:1018D0001124911DB29F700D811D1124911D089539
:1018E000991B79E004C0991F961708F0961B881F72
:1018F0007A95C9F780950895EE0FFF1F0590F49132
:10190000E02D0994F894FFCF04050600010203318D
:1019100032333435363738392A302300000000FAA4
:10192000017B029B014702CC01AA01BE010000001D
:10193000006B032B03FA020000000082057B02C744
:1019400003C6030D0A004E6F204F626A656374215F
:1019500000536F6D65626F647920746865726521EC
:10196000005761726E696E672100536F6D65626F1B
:1019700064792074686572650050415353574F5223
:10198000443A0020002A003131323200416363655D
:101990007373204772616E7465640057454C434F02
:1019A0004D45212100434C4F53452047455420418C
:1019B000465445523A3A3A003500434C4F5345207D
:1019C0004745542041465445523A003400330031D3
:1019D00000434C4F5345204745543A3A3A0052454C
:1019E0002D4C4F434B494E47002E004C4F434B4527
:1019F000442100434F444500494E434F5252454312
:101A00005400474554204157415921212100434F5B
:101A1000444520494E434F525245435420594F5557
:101A20002041524520554E415554484F52495A4540
:021A3000440070
:107E0000112484B714BE81FFF0D085E080938100F7
:107E100082E08093C00088E18093C10086E0809377
:107E2000C20080E18093C4008EE0C9D0259A86E02C
:107E300020E33CEF91E0309385002093840096BBD3
:107E4000B09BFECF1D9AA8958150A9F7CC24DD24C4
:107E500088248394B5E0AB2EA1E19A2EF3E0BF2EE7
:107E6000A2D0813461F49FD0082FAFD0023811F036
:107E7000013811F484E001C083E08DD089C08234E0
:107E800011F484E103C0853419F485E0A6D080C0E4
:107E9000853579F488D0E82EFF2485D0082F10E0AE
:107EA000102F00270E291F29000F111F8ED06801E7
:107EB0006FC0863521F484E090D080E0DECF843638
:107EC00009F040C070D06FD0082F6DD080E0C81688
:107ED00080E7D80618F4F601B7BEE895C0E0D1E017
:107EE00062D089930C17E1F7F0E0CF16F0E7DF06D8
:107EF00018F0F601B7BEE89568D007B600FCFDCFD4
:107F0000A601A0E0B1E02C9130E011968C91119780
:107F100090E0982F8827822B932B1296FA010C0160
:107F200087BEE89511244E5F5F4FF1E0A038BF0790
:107F300051F7F601A7BEE89507B600FCFDCF97BE46
:107F4000E89526C08437B1F42ED02DD0F82E2BD052
:107F50003CD0F601EF2C8F010F5F1F4F84911BD097
:107F6000EA94F801C1F70894C11CD11CFA94CF0C13
:107F7000D11C0EC0853739F428D08EE10CD085E9AC
:107F80000AD08FE07ACF813511F488E018D01DD067
:107F900080E101D065CF982F8091C00085FFFCCF94
:107FA0009093C60008958091C00087FFFCCF809118
:107FB000C00084FD01C0A8958091C6000895E0E648
:107FC000F0E098E1908380830895EDDF803219F02E
:107FD00088E0F5DFFFCF84E1DECF1F93182FE3DFCA
:107FE0001150E9F7F2DF1F91089580E0E8DFEE27F6
:047FF000FF270994CA
:027FFE00040479
:00000001FF
